:100000000C943E000C945B000C945B000C945B0021
:100010000C945B000C945B000C945B000C945B00F4
:100020000C945B000C945B000C945B000C945B00E4
:100030000C945B000C945B000C945B000C945B00D4
:100040000C945B000C945B000C945B000C945B00C4
:100050000C944E010C945B000C945B000C945B00C0
:100060000C945B000C945B000C945B000C945B00A4
:100070000C945B000C945B000C945B0011241FBE7D
:10008000CFEFD4E0DEBFCDBF11E0A0E0B1E0E2ED04
:10009000F5E002C005900D92AC30B107D9F721E030
:1000A000ACE0B1E001C01D92AE30B207E1F70E94B2
:1000B000A1020C94E7020C94000091E09093D80008
:1000C0001092E5009091D90091609093D900109220
:1000D000E2009CE09093E30096E39093E40090911B
:1000E000DB00906A9093DB001092DF009FE3909317
:1000F000DE0090E0292F2295207F2093ED001092C2
:10010000EF001092EE009F5F9630A1F7811104C0BE
:100110008091D800826005C0823029F48091D80097
:100120008A608093D80080E00895E091DC00F0E0E0
:10013000082E02C0F595E7950A94E2F7E0FD2EC07F
:100140008295807F8093ED001092EE00CB0153E00A
:10015000969587955A95E1F78093F3006295660F1F
:10016000607E6093F2001092F1001092F000109205
:10017000F7001092F6001092F5001092F400922F02
:10018000F9018E2F891B841720F481918093FA0046
:10019000F8CF1092EF0040644093EF0080E00895A4
:1001A0002091DC0030E002C0359527958A95E2F772
:1001B00020FD0EC08091EE0086FF05C08091EE000C
:1001C0008F7B8093EE008091EE00811103C0089533
:1001D00080E0089583E00895E091DC00F0E0082ECF
:1001E00002C0F595E7950A94E2F7E0FD2EC08295EE
:1001F000807F8093ED001092EE00CB0153E0969546
:1002000087955A95E1F78093F3006295660F607EBB
:100210006093F2001092F1001092F000C90163E0C7
:10022000969587956A95E1F78093F7002295220FBE
:10023000207E2093F6001092F50085E08093F40074
:100240001092EF0040684093EF0080E0089582959F
:10025000807F8093ED008091EE0085FF07C0809144
:10026000EE008F7D8093EE0080E001C081E09091F0
:10027000EE0097FF04C06091EF006F6082E0FA012A
:1002800070E09F01241B350B2617370724F490914B
:10029000FA009193F6CF1092EE0008951F920F92FC
:1002A0000FB60F9211248F9380910D0180FF09C02A
:1002B0008091D20080930C0180910D018E7F8093FC
:1002C0000D018F910F900FBE0F901F901895E8ECC5
:1002D000F0E080818F6080838CE090E09093CE008E
:1002E0008093CD00EAECF0E0808181608083109201
:1002F0000D0108959091C90094FDFCCF8093D20028
:100300000895FC0170E09F01281B390B2617370761
:1003100044F42091C90024FDFCCF21912093D20008
:10032000F2CF8091C90084FDFCCF8AE08093D20097
:100330008091C90084FDFCCF8DE08093D2000895A8
:1003400080910D01816080930D0180910D0180FDF0
:10035000FCCF80910C010895469A00C000C04698D9
:100360000895CF93DF931F92CDB7DEB7662311F0C8
:10037000449A01C044984598559A3F9A509A519A88
:100380005998589847985D9887FD599A86FD589ACC
:1003900085FD479A84FD5D9A89830E94AC01599836
:1003A000589847985D98898183FD599A82FD589A9B
:1003B00081FD479A80FD5D9A0E94AC015D9A479A43
:1003C000589A599A0F90DF91CF9108954498459A81
:1003D00055983F9850985198469A00C000C04D9B40
:1003E00002C080E101C080E0379980624899806452
:1003F00049998068469800C000C0469A00C000C075
:100400004D998160379982604899846049998860E4
:10041000469808950E94E60187FDFCCF85E08A9505
:10042000F1F700000C94E601CF93C82F0E940A0256
:1004300060E08C2FCF910C94B101CF93C82F0E9414
:100440000A0261E08C2FCF910C94B101611102C0BE
:10045000805801C080540C9414020E940A0290E05B
:10046000089581E00C94140282E00C941402CF935E
:10047000C82F0E940A02CA3049F4803410F080E08C
:1004800001C080E48058CF910C94140261E08C2F5D
:10049000CF910C94B101CF93DF93EC018991882324
:1004A00019F00E943702FACFDF91CF910895CF93D0
:1004B000DF93FC018491EF012196882321F00E94B3
:1004C0003702FE01F7CFDF91CF910895CF93C82F68
:1004D0003C9A3D9A3E9A559A3F9A509A519A8FE784
:1004E0009EE30197F1F700C00000479A5D9A0E94D1
:1004F000AC0187E893E10197F1F700C000000E948A
:10050000AC0195E59A95F1F700000E94AC0185E5F4
:100510008A95F1F700005D980E94AC0195E59A95E7
:10052000F1F7000088E20E94140288E00E941402A1
:100530000E94310286E00E9414028C2FCF910C940D
:100540001402CF93DF93CDB7DEB72B970FB6F89495
:10055000DEBF0FBECDBF0E9467018AB1806E8AB92F
:100560008BE0D82E8E010F5F1F4F90E2E92E20E422
:10057000F22E0E946701E0E0F1E0D8018D2D01909C
:100580000D928A95E1F7F80101900020E9F7319783
:10059000BF01601B710BC8010E9481015D9A5E9AC8
:1005A0005F9A8FE097E20197F1F700C000008BB1EE
:1005B0008E258BB98BB18F258BB98BB180588BB9B8
:1005C0008FE097E20197F1F700C00000D2CFF894D6
:0205D000FFCF5B
:0C05D200696E697420676F6F642100007F
:00000001FF
