:100000000C943E000C9450000C9450000C94500042
:100010000C9450000C9450000C9450000C94500020
:100020000C9450000C9450000C9450000C94500010
:100030000C9450000C9450000C9450000C94500000
:100040000C9450000C9450000C9450000C945000F0
:100050000C9443010C9450000C9450000C945000EC
:100060000C9450000C9450000C9450000C945000D0
:100070000C9450000C9450000C94500011241FBE9E
:10008000CFEFD4E0DEBFCDBF21E0A0E0B1E001C002
:100090001D92A230B207E1F70E9496020C94B002C2
:1000A0000C94000091E09093D8001092E50090919C
:1000B000D90091609093D9001092E2009CE0909357
:1000C000E30096E39093E4009091DB00906A9093B4
:1000D000DB001092DF009FE39093DE0090E0292F79
:1000E0002295207F2093ED001092EF001092EE00F9
:1000F0009F5F9630A1F7811104C08091D800826083
:1001000005C0823029F48091D8008A608093D8009D
:1001100080E00895E091DC00F0E0082E02C0F59543
:10012000E7950A94E2F7E0FD2EC08295807F8093E8
:10013000ED001092EE00CB0153E0969587955A950D
:10014000E1F78093F3006295660F607E6093F200A2
:100150001092F1001092F0001092F7001092F60049
:100160001092F5001092F400922FF9018E2F891B46
:10017000841720F481918093FA00F8CF1092EF0059
:1001800040644093EF0080E008952091DC0030E06F
:1001900002C0359527958A95E2F720FD0EC0809123
:1001A000EE0086FF05C08091EE008F7B8093EE000D
:1001B0008091EE00811103C0089580E0089583E0EE
:1001C0000895E091DC00F0E0082E02C0F595E79577
:1001D0000A94E2F7E0FD2EC08295807F8093ED00C7
:1001E0001092EE00CB0153E0969587955A95E1F772
:1001F0008093F3006295660F607E6093F200109228
:10020000F1001092F000C90163E0969587956A9518
:10021000E1F78093F7002295220F207E2093F600CD
:100220001092F50085E08093F4001092EF00406892
:100230004093EF0080E008958295807F8093ED00E9
:100240008091EE0085FF07C08091EE008F7D809346
:10025000EE0080E001C081E09091EE0097FF04C0C5
:100260006091EF006F6082E0FA0170E09F01241B53
:10027000350B2617370724F49091FA009193F6CFA7
:100280001092EE0008951F920F920FB60F92112454
:100290008F938091010180FF09C08091D2008093EB
:1002A0000001809101018E7F809301018F910F9059
:1002B0000FBE0F901F901895E8ECF0E080818F60E2
:1002C00080838CE090E09093CE008093CD00EAECA8
:1002D000F0E0808181608083109201010895909107
:1002E000C90094FDFCCF8093D2000895FC0170E01A
:1002F0009F01281B390B2617370744F42091C900AA
:1003000024FDFCCF21912093D200F2CF8091C9002F
:1003100084FDFCCF8AE08093D2008091C90084FDE7
:10032000FCCF8DE08093D20008958091010181601F
:10033000809301018091010180FDFCCF809100013B
:100340000895469A00C000C046980895CF93DF9361
:100350001F92CDB7DEB7662311F0449A01C04498CE
:100360004598559A3F9A509A519A59985898479853
:100370005D9887FD599A86FD589A85FD479A84FDB8
:100380005D9A89830E94A1015998589847985D9871
:10039000898183FD599A82FD589A81FD479A80FD93
:1003A0005D9A0E94A1015D9A479A589A599A0F90B6
:1003B000DF91CF9108954498459A55983F98509869
:1003C0005198469A00C000C04D9B02C080E101C018
:1003D00080E037998062489980644999806846989E
:1003E00000C000C0469A00C000C04D998160379996
:1003F00082604899846049998860469808950E946F
:10040000DB0187FDFCCF85E08A95F1F700000C94B5
:10041000DB01CF93C82F0E94FF0160E08C2FCF91AA
:100420000C94A601CF93C82F0E94FF0161E08C2F8E
:10043000CF910C94A601611102C0805801C0805474
:100440000C9409020E94FF0190E0089581E00C9451
:10045000090282E00C940902CF93C82F0E94FF0189
:10046000CA3049F4803410F080E001C080E4805844
:10047000CF910C94090261E08C2FCF910C94A601CE
:10048000CF93DF93EC018991882319F00E942C020D
:10049000FACFDF91CF910895CF93DF93FC01849140
:1004A000EF012196882321F00E942C02FE01F7CF54
:1004B000DF91CF910895CF93C82F3C9A3D9A3E9AF1
:1004C000559A3F9A509A519A8FE79EE30197F1F718
:1004D00000C00000479A5D9A0E94A10187E893E15D
:1004E0000197F1F700C000000E94A10195E59A95DF
:1004F000F1F700000E94A10185E58A95F1F700005F
:100500005D980E94A10195E59A95F1F7000088E2B7
:100510000E94090288E00E9409020E94260286E0E9
:100520000E9409028C2FCF910C94090284B187603C
:1005300084B9299A31E022E094E085B1832785B916
:1005400085B1822785B985B1892785B94FEF54E3F5
:100550008CE0415050408040E1F700C00000EDCFFA
:04056000F894FFCF3D
:00000001FF
